S015000050756C736554657374537569742E73726563C1
S11300000C9434000C9451000C9451000C94510045
S11300100C9451000C9451000C9451000C94510018
S11300200C9451000C9451000C9451000C94510008
S11300300C9451000C9451000C9451000C945100F8
S11300400C9451000C9451000C9451000C945100E8
S11300500C9451000C947A000C9451000C945100AF
S11300600C9451000C94510011241FBECFEFD8E022
S1130070DEBFCDBF11E0A0E0B1E0E8EAF1E002C0EC
S113008005900D92A230B107D9F721E0A2E0B1E0CA
S113009001C01D92AE30B207E1F70E94C7000C9474
S11300A0D2000C9400008AB180668AB917BC18BCCF
S11300B084B5806884BD84B5806284BD84B5836062
S11300C084BD85B5856085BD08950E9453008AB1BD
S11300D084698AB9209A0895ECE7F0E09081907ED3
S11300E08F71892B80830895EAE7F0E08081806432
S11300F0808308951F920F920FB60F9211242F93AD
S11301003F934F935F936F937F938F939F93AF939B
S1130110BF93EF93FF9380910001863018F081E044
S113012080930001E0910001F0E0809178009091CB
S11301307900EE0FFF1FEE5FFE4F91838083809165
S1130140000191E0980F909300010E946C000E94BE
S11301507400FF91EF91BF91AF919F918F917F9127
S11301606F915F914F913F912F910F900FBE0F9020
S11301701F90189580E480937C008FE880937A0028
S113018081E00E946C0078940E94740008950E949B
S113019065000E94BA00E2E0F1E0828593858681E1
S10B01A09781FBCFF894FFCF17
S10501A8010050
S9030000FC
