:100000000C9434000C9451000C9451000C94510049
:100010000C9451000C9451000C9451000C9451001C
:100020000C9451000C9451000C9451000C9451000C
:100030000C9451000C9451000C9451000C945100FC
:100040000C9451000C9451000C94C0000C9451007D
:100050000C9451000C9419010C9451000C94510013
:100060000C9451000C94510011241FBECFEFD8E026
:10007000DEBFCDBF11E0A0E0B1E0EAE1F9E002C0EF
:1000800005900D92A230B107D9F721E0A2E0B1E0CE
:1000900001C01D92AE30B207E1F70E9467010C94D7
:1000A0008B040C9400001092C50087E68093C40076
:1000B000E0ECF0E0108288E98093C10086E0809354
:1000C000C20080818064808308958AB180668AB985
:1000D00017BC18BC84B5806884BD84B5806284BDBB
:1000E00084B5836084BD85B5856085BD08950E9413
:1000F00065008AB184698AB9209A08955A9A5C98F1
:1001000088BD08955A985C9A88BD08955F9A28988A
:1001100087BD08955F98289A87BD08951816190617
:100120005CF49C01992324F422273327281B390BE4
:10013000822F0E94860008959C01992324F422278F
:100140003327281B390B822F0E948A000895181626
:1001500019065CF49C01992324F422273327281BD9
:10016000390B822F0E94820008959C01992324F468
:1001700022273327281B390B822F0E947E000895E7
:100180001F920F920FB60F9211242F933F934F930C
:100190005F936F937F938F939F93AF93BF93EF93EF
:1001A000FF938091C600823441F08334C1F08134E2
:1001B00009F581E3809300011DC080E090E00E947A
:1001C000A70080E090E00E948E002FEF83E294EF82
:1001D000215080409040E1F700C000000BC080E05B
:1001E00090E00E94A70080E090E00E948E0080E3F3
:1001F00080930001FF91EF91BF91AF919F918F91FB
:100200007F916F915F914F913F912F910F900FBE12
:100210000F901F901895ECE7F0E09081907E8F7121
:10022000892B80830895EAE7F0E0808180648083F1
:1002300008951F920F920FB60F9211242F933F93A0
:100240004F935F936F937F938F939F93AF93BF93DE
:10025000EF93FF9380910101863018F081E0809345
:100260000101809101010E940B01E0910101F0E088
:100270008091780090917900EE0FFF1FEE5FFE4FA6
:1002800091838083809101018F5F809301010E949F
:100290001301FF91EF91BF91AF919F918F917F914A
:1002A0006F915F914F913F912F910F900FBE0F90E3
:1002B0001F90189580E480937C008FE880937A00EB
:1002C00081E00E940B0178940E94130108950E941E
:1002D00053000E9477000E945A018FEF84B9212CAD
:1002E000312CE12CF12CC12CD12CC2E0D1E00E81BB
:1002F0001F818C819D81B801012E000C880B990B08
:100300000E94690320E030E040E752E40E94BF020F
:100310004B015C018C819D818C819D818C819D81B3
:100320008C819D818C819D818C819D818C819D8121
:10033000E114F10459F4013223E012073CF08FEF8D
:10034000C81AD80AEE24E394F12C03C02114310416
:1003500071F4073311054CF49FEFC91AD90A22240E
:100360002394312CE12CF12C02C0212C312C24E0DF
:10037000C216D10499F480E090E00E94A70080E0CA
:1003800090E00E948E008FEF97EA21E68150904026
:100390002040E1F700C00000C12CD12C20E030E06B
:1003A0004FE753E4C501B4010E941E042DEC3CEC60
:1003B0004CE45FE30E941E0420E030E0A9010E94AB
:1003C0004E022B013C01A501940160E070E08FE733
:1003D00093E40E94BF022DEC3CEC4CE45FE30E94EE
:1003E0001E0420E030E040E850E40E944D024B0142
:1003F0005C0120E030E04FE753E4C301B2010E940A
:100400001904181674F020E030E048E452E4C30107
:10041000B2010E94BA02882364F4412C512C3201AB
:1004200008C00F2E412C512CFFE76F2EF3E47F2ED6
:10043000F02D20E030E04FE753E4C501B4010E9405
:100440001904181674F020E030E048E452E4C501C5
:10045000B4010E94BA02882364F4812C912C5401C7
:1004600008C00F2E812C912CFFE7AF2EF3E4BF2E96
:10047000F02D80910001813309F039CFC301B20121
:100480000E943103CB010E94A700C501B4010E9464
:100490003103CB010E948E002ACF5058BB27AA27D8
:1004A0000E9465020C94DF030E94D10338F00E9481
:1004B000D80320F039F49F3F19F426F40C94CE03AE
:1004C0000EF4E095E7FB0C94C803E92F0E94F003BB
:1004D00058F3BA17620773078407950720F079F479
:1004E000A6F50C9412040EF4E0950B2EBA2FA02D55
:1004F0000B01B90190010C01CA01A0011124FF27D1
:10050000591B99F0593F50F4503E68F11A16F040CB
:10051000A22F232F342F4427585FF3CF46953795CA
:100520002795A795F0405395C9F77EF41F16BA0B8F
:10053000620B730B840BBAF09150A1F0FF0FBB1F3D
:10054000661F771F881FC2F70EC0BA0F621F731F86
:10055000841F48F4879577956795B795F7959E3FE3
:1005600008F0B0CF9395880F08F09927EE0F979574
:10057000879508950E94A40308F481E008950E94DD
:10058000D3020C94DF030E94D80358F00E94D103D9
:1005900040F029F45F3F29F00C94C80351110C94EA
:1005A00013040C94CE030E94F00368F39923B1F373
:1005B000552391F3951B550BBB27AA276217730789
:1005C000840738F09F5F5F4F220F331F441FAA1F1D
:1005D000A9F335D00E2E3AF0E0E832D091505040D9
:1005E000E695001CCAF72BD0FE2F29D0660F771F87
:1005F000881FBB1F261737074807AB07B0E809F06D
:10060000BB0B802DBF01FF2793585F4F3AF09E3FF1
:10061000510578F00C94C8030C9413045F3FE4F385
:10062000983ED4F3869577956795B795F7959F5F34
:10063000C9F7880F911D9695879597F90895E1E080
:10064000660F771F881FBB1F621773078407BA07DF
:1006500020F0621B730B840BBA0BEE1F88F7E0953A
:1006600008950E9438036894B1110C9413040895FE
:100670000E94F80388F09F5798F0B92F9927B75137
:10068000B0F0E1F0660F771F881F991F1AF0BA9536
:10069000C9F714C0B13091F00E941204B1E008957E
:1006A0000C941204672F782F8827B85F39F0B93F70
:1006B000CCF3869577956795B395D9F73EF49095E9
:1006C0008095709561957F4F8F4F9F4F0895E89467
:1006D00009C097FB3EF490958095709561957F4F8A
:1006E0008F4F9F4F9923A9F0F92F96E9BB27939538
:1006F000F695879577956795B795F111F8CFFAF448
:10070000BB0F11F460FF1BC06F5F7F4F8F4F9F4F78
:1007100016C0882311F096E911C0772321F09EE8D6
:10072000872F762F05C0662371F096E8862F70E03C
:1007300060E02AF09A95660F771F881FDAF7880F16
:100740009695879597F90895990F0008550FAA0B6C
:10075000E0E8FEEF16161706E807F907C0F01216D4
:100760001306E407F50798F0621B730B840B950BD7
:1007700039F40A2661F0232B242B252B21F408952C
:100780000A2609F4A140A6958FEF811D811D0895C9
:1007900097F99F6780E870E060E008959FEF80EC34
:1007A000089500240A9416161706180609060895D7
:1007B00000240A9412161306140605060895092E3D
:1007C0000394000C11F4882352F0BB0F40F4BF2BAC
:1007D00011F460FF04C06F5F7F4F8F4F9F4F0895EC
:1007E00057FD9058440F551F59F05F3F71F04795E2
:1007F000880F97FB991F61F09F3F79F087950895C7
:10080000121613061406551FF2CF4695F1DF08C0E5
:10081000161617061806991FF1CF86957105610502
:1008200008940895E894BB2766277727CB0197F9AA
:1008300008950E94A40308F48FEF08950E943104E4
:100840000C94DF030E94D10338F00E94D80320F0FB
:10085000952311F00C94C8030C94CE0311240C942E
:1008600013040E94F00370F3959FC1F3950F50E0BD
:10087000551F629FF001729FBB27F00DB11D639F52
:10088000AA27F00DB11DAA1F649F6627B00DA11DF8
:10089000661F829F2227B00DA11D621F739FB00D9E
:1008A000A11D621F839FA00D611D221F749F33270E
:1008B000A00D611D231F849F600D211D822F762FA7
:1008C0006A2F11249F5750409AF0F1F088234AF084
:1008D000EE0FFF1FBB1F661F771F881F91505040F0
:1008E000A9F79E3F510580F00C94C8030C941304A3
:1008F0005F3FE4F3983ED4F3869577956795B79577
:10090000F795E7959F5FC1F7FE2B880F911D969590
:0A091000879597F90895F894FFCF3A
:02091A003101A9
:00000001FF
